:100000000C941A030C9442030C9442030C94420384
:100010000C9442030C9442030C9442030C9442034C
:100020000C9442030C9442030C9442030C9442033C
:100030000C9442030C9442030C9442030C9442032C
:100040000C949F0B0C9442030C9448130C942213B1
:100050000C9442030C9442030C9442030C9442030C
:100060000C9442030C9442035C0C890CBA0C050DF1
:10007000340D770DC40D0001020304050608090ABA
:100080000B0D0E1012131517191B1D202225272AE0
:100090002D3033373A3E4145494D52565B5F6469D6
:1000A0006E74797F858B91979DA4ABB2B9C0C7CF91
:1000B000D6DEE6EEF7FF000102030507090B0E117D
:1000C00014181D22282E363D464F59646F7C89979F
:1000D000A6B6C7D9EBFF00000000240027002A00C5
:1000E00000000000003E5B4F5B3E3E6B4F6B3E1CD2
:1000F0003E7C3E1C183C7E3C181C577D571C1C5EE9
:100100007F5E1C00183C1800FFE7C3E7FF001824BF
:100110001800FFE7DBE7FF30483A060E2629792969
:1001200026407F050507407F05253F5A3CE73C5A9E
:100130007F3E1C1C08081C1C3E7F14227F22145F7B
:100140005F005F5F06097F017F006689956A6060D6
:1001500060606094A2FFA29408047E040810207ED0
:10016000201008082A1C08081C2A08081E10101055
:10017000100C1E0C1E0C30383E3830060E3E0E069B
:10018000000000000000005F0000000700070014EE
:100190007F147F14242A7F2A1223130864623649AD
:1001A0005620500008070300001C22410000412295
:1001B0001C002A1C7F1C2A08083E0808008070309A
:1001C0000008080808080000606000201008040209
:1001D0003E5149453E00427F40007249494946210F
:1001E00041494D331814127F1027454545393C4A83
:1001F000494931412111090736494949364649499A
:10020000291E0000140000004034000000081422E1
:10021000411414141414004122140802015909064F
:100220003E415D594E7C1211127C7F494949363E50
:10023000414141227F4141413E7F494949417F0936
:100240000909013E414151737F0808087F00417F41
:1002500041002040413F017F081422417F4040403F
:10026000407F021C027F7F0408107F3E4141413ED7
:100270007F090909063E4151215E7F091929462659
:100280004949493203017F01033F4040403F1F205D
:1002900040201F3F4038403F631408146303047834
:1002A00004036159494D43007F4141410204081054
:1002B00020004141417F040201020440404040408F
:1002C000000307080020545478407F2844443838FD
:1002D00044444428384444287F385454541800086F
:1002E0007E090218A4A49C787F0804047800447D49
:1002F00040002040403D007F1028440000417F40E6
:10030000007C047804787C08040478384444443839
:10031000FC1824241818242418FC7C080404084819
:100320005454542404043F44243C4040207C1C206A
:1003300040201C3C4030403C44281028444C9090C5
:10034000907C4464544C440008364100000077001F
:1003500000004136080002010204023C2623263C2C
:100360001EA1A161123A4040207A385454555921B7
:10037000555579412254547842215554784020549F
:100380005579400C1E5272123955555559395454ED
:10039000545939555454580000457C410002457D5C
:1003A000420001457C407D1211127DF0282528F085
:1003B0007C545545002054547C547C0A097F4932B2
:1003C000494949323A4444443A324A4848303A4129
:1003D00041217A3A42402078009DA0A07D3D4242D2
:1003E000423D3D4040403D3C24FF2424487E49435B
:1003F000662B2FFC2F2BFF0929F620C0887E0903CE
:1004000020545479410000447D413048484A3238F4
:100410004040227A007A0A0A727D0D19317D262920
:10042000292F28262929292630484D402038080818
:10043000080808080808382F10C8ACBA2F1028344C
:10044000FA00007B000008142A142222142A14083F
:100450005500550055AA55AA55AAFF55FF55FF004E
:100460000000FF00101010FF00141414FF00101003
:10047000FF00FF1010F010F0141414FC001414F717
:1004800000FF0000FF00FF1414F404FC1414171004
:100490001F10101F101F1414141F00101010F00054
:1004A0000000001F101010101F10101010F010008E
:1004B0000000FF101010101010101010FF1000009E
:1004C00000FF140000FF00FF00001F10170000FCD9
:1004D00004F414141710171414F404F40000FF00AB
:1004E000F714141414141414F700F7141414171434
:1004F00010101F101F141414F4141010F010F0003A
:10050000001F101F0000001F14000000FC1400005A
:10051000F010F01010FF10FF141414FF141010103E
:100520001F00000000F010FFFFFFFFFFF0F0F0F0F1
:10053000F0FFFFFF0000000000FFFF0F0F0F0F0F85
:100540003844443844FC4A4A4A347E0202060602D1
:100550007E027E0263554941633844443C04407E38
:10056000201E2006027E020299A5E7A5991C2A49B1
:100570002A1C4C7201724C304A4D4D30304878483C
:1005800030BC625A463D3E494949007E0101017E28
:100590002A2A2A2A2A44445F444440514A4440407B
:1005A000444A51400000FF0103E080FF00000808BA
:1005B0006B6B083612362436060F090F060000183A
:1005C000180000001010003040FF0101001F010161
:1005D0001E00191D1712003C3C3C3C0000000000AE
:1005E000000000002300260029000000000800028F
:1005F00001000003040700000000000000000102E9
:1006000004081020408001020408102001020408A0
:10061000102000000000250028002B000404040422
:10062000040404040202020202020303030303039C
:1006300090137A1311241FBECFEFD8E0DEBFCDBFD9
:1006400023E0AAEBB1E001C01D92A830B207E1F7A8
:1006500011E0A0E0B1E0EAEAF2E302C005900D92F9
:10066000AA3BB107D9F713E0C9E1D3E004C0219751
:10067000FE010E941C18C831D107C9F70E94D4148A
:100680000C9448190C940000FC01918D828D9817F0
:1006900061F0828DDF01A80FB11D5D968C91928D66
:1006A0009F5F9F73928F90E008958FEF9FEF089563
:1006B000FC01918D828D981731F0828DE80FF11D2C
:1006C000858D90E008958FEF9FEF0895FC01918D47
:1006D000228D892F90E0805C9F4F821B91098F7340
:1006E0009927089580E090E0892B29F00E94A912B3
:1006F00081110C9400000895FC01EF2FFF27E6956F
:10070000E695E695EA54FF4F2491FC0135E0F69515
:10071000E7953A95E1F7EF73FF27EA58FF4F6491A9
:100720008F719927FC01EA54FF4FE491862F90E0E6
:10073000A0E0B0E0BA2FA92F982F8827A22BBC01E8
:10074000CD016E2B08950895FC016370658B848143
:10075000958126813781613039F0633029F09187A6
:100760008087338722870895318720879387828700
:1007700008956F927F928F929F92AF92BF92CF9285
:10078000DF92EF92FF920F931F93CF93DF93EC01D1
:100790004B015A0169013801E881F9810284F3852E
:1007A000E02D0995E881F9810288F389E02D870120
:1007B0009601A501B401CE010995A501460D571D6D
:1007C00041505109E881F9810288F389E02D9601B1
:1007D000B401CE010995E881F9810088F189E02D05
:1007E0009301A501B401CE010995C80CD91CB6012D
:1007F00061507109E881F9810088F189E02D930148
:10080000A501CE010995E881F9810688F789E02DD7
:10081000CE01DF91CF911F910F91FF90EF90DF906C
:10082000CF90BF90AF909F908F907F906F900994E2
:100830008F929F92AF92BF92CF92DF92EF92FF92F0
:100840000F931F93CF93DF934C016B015A01E90182
:10085000DC01ED91FC916217730781F40417150711
:1008600024F48B2D5801042F182F0A191B09980105
:100870002F5F3F4F048CF58DE02D12C040175107BC
:1008800009F52617370724F48D2D6901C62FD82FB7
:100890009E012C193D092F5F3F4F068CF78DE02DEF
:1008A0008701A501B601C4010995DF91CF911F9180
:1008B0000F91FF90EF90DF90CF90BF90AF909F90FF
:1008C0008F9008950284F385E02D0995D401ED9170
:1008D000FC910488F589E02D9E01A501B601C401B3
:1008E0000995D401ED91FC910688F789E02DC401AA
:1008F000DF91CF911F910F91FF90EF90DF90CF90FC
:10090000BF90AF909F908F900994EF92FF920F93BA
:100910001F93DC011A960D911C911B9718962D912F
:100920003C911997ED91FC9100A0F1A1E02D7B0184
:1009300040E050E060E070E009951F910F91FF905A
:10094000EF9008954F925F926F927F928F929F9255
:10095000AF92BF92CF92DF92EF92FF920F931F93CD
:10096000CF93DF936C012B015A0139014801DC015F
:10097000ED91FC910284F385E02D0995E201640C70
:10098000751CD601ED91FC91C615D7055CF4008865
:10099000F189E02D87019401A501BE01C6010995E9
:1009A0002196EFCF0688F789E02DC601DF91CF9120
:1009B0001F910F91FF90EF90DF90CF90BF90AF907D
:1009C0009F908F907F906F905F904F9009948F923F
:1009D0009F92AF92BF92CF92DF92EF92FF920F93CE
:1009E0001F93CF93DF93EC015B014A016901E8811A
:1009F000F9810284F385E02D099595012C0D3D1DAB
:100A000021503109E881F9810488F589E02D7801C8
:100A10008401A401B501CE010995E881F981068818
:100A2000F789E02DCE01DF91CF911F910F91FF90BB
:100A3000EF90DF90CF90BF90AF909F908F900994F0
:100A40008F929F92AF92BF92CF92DF92EF92FF92DE
:100A50000F931F93CF93DF93EC015B014A01690170
:100A60007801E881F9810284F385E02D0995C80CAD
:100A7000D91C860101501109E881F9810488F589A2
:100A8000E02D9501A401B501CE010995E881F98118
:100A90000688F789E02DCE01DF91CF911F910F914C
:100AA000FF90EF90DF90CF90BF90AF909F908F908E
:100AB00009940895EF92FF920F931F93DC01ED913B
:100AC000FC9100A0F1A1E02D09951F910F91FF90DD
:100AD000EF9008950F931F93DC01ED91FC91068C2C
:100AE000F78DE02D09951F910F9108950F931F9396
:100AF000DC01ED91FC91048CF58DE02D09951F91A1
:100B00000F910895DC01ED91FC910084F185E02DB9
:100B100009942F923F924F925F926F927F928F92A1
:100B20009F92AF92BF92CF92DF92EF92FF920F937C
:100B30001F93CF93DF9300D000D000D0CDB7DEB7A6
:100B40002C017E836D836A015901C801FC82EB820E
:100B50004801841A950A97FE03C0919481949108E4
:100B600035012D813E81621A730A77FE03C07194AC
:100B700061947108681479045CF43A2D2B2D5C01A2
:100B8000832F922F3D812E81DE82CD82C32ED22EE5
:100B9000AD81BE81AA16BB065CF43C2D2D2D6C01E7
:100BA000832F922F3D812E81BE82AD82A32EB22E45
:100BB00085012D813E81021B130B1C012C183D0861
:100BC00037FE03C0319421943108780117FF03C028
:100BD0003FEFE31AF30AF594E794C816D9062CF010
:100BE0008FEF9FEF9A83898304C0A1E0B0E0BA83BE
:100BF000A9832D813E81A216B30624F1D201ED9185
:100C0000FC910484F585E02D2B813C8168147904E6
:100C100024F44D815E81B60103C0A6016D817E8101
:100C2000C2010995E218F308F7FE06C029813A814E
:100C3000C20ED31EE00EF11E8D819E8101969E8311
:100C40008D83D7CF26960FB6F894DEBF0FBECDBFEB
:100C5000DF91CF911F910F91FF90EF90DF90CF9098
:100C6000BF90AF909F908F907F906F905F904F90CC
:100C70003F902F900895EF92FF920F931F9380EE75
:100C8000E82E87E0F82E07E010E020E030E042E0B8
:100C900050E060E070E08CEB92E00E94180423E0EA
:100CA00030E047E050E060E070E08CEB92E00E94C2
:100CB0001804EE24EA94FE2C03E010E023E030E078
:100CC00043E050E061E070E08CEB92E00E94180499
:100CD0001F910F91FF90EF9008952F923F924F92A6
:100CE0005F926F927F928F929F92AF92BF92CF92BC
:100CF000DF92EF92FF920F931F93CF93DF9300D079
:100D000000D0CDB7DEB79C838B832B016A015C01D9
:100D10008FEFA81AB80AE12CF12C01E010E022E0D4
:100D200030E047E050E0B5018CEB92E00E94A20475
:100D30006B807C8093E0690E711C22E030E047E01C
:100D400050E0B3018CEB92E00E94A2042B803C8027
:100D500086E0280E311C22E030E047E050E0B1018F
:100D60008CEB92E00E94A20402E010E028E030E068
:100D700045E050E0B5018CEB92E00E94A2046B814B
:100D80007C81695F7F4F01E010E022E030E044E0C9
:100D900050E08CEB92E00E94A204720122E030E06D
:100DA00047E050E0B5018CEB92E00E94A20476018E
:100DB00022E030E047E050E0B3018CEB92E00E948B
:100DC000A2048B809C8095E0890E911C720122E028
:100DD00030E047E050E0B4018CEB92E00E94A204C6
:100DE00002E010E028E030E045E050E06B817C81DB
:100DF0008CEB92E00E94A204E12CF12C01E010E0C7
:100E000022E030E047E050E06B817C818CEB92E0A7
:100E10000E94A20422E030E047E050E0B3018CEBF6
:100E200092E00E94A20422E030E047E050E0B401EA
:100E30008CEB92E00E94A2048B819C8101979A83A3
:100E4000898302E010E028E030E045E050E0BC019A
:100E50008CEB92E00E94A20401E010E022E030E07E
:100E600044E050E0B1018CEB92E00E94A2047201D8
:100E700022E030E047E050E0B5018CEB92E00E94C8
:100E8000A204760122E030E047E050E0B3018CEBB1
:100E900092E00E94A204720122E030E047E050E0BC
:100EA000B4018CEB92E00E94A20402E010E028E082
:100EB00030E045E050E06B817C818CEB92E00E9459
:100EC000A20401E010E022E030E044E050E0B10193
:100ED0008CEB92E00E94A204E12CF12C21E030E0A6
:100EE00044E050E0B3018CEB92E00E94A2044B80FE
:100EF0005C8094E0490E511C02E010E021E030E0FB
:100F000043E050E0B2018CEB92E00E94A2048B809F
:100F10009C8082E0880E911C03E010E021E030E02C
:100F200042E050E0B4018CEB92E00E94A20404E0A5
:100F300010E021E030E041E050E0B5018CEB92E0C0
:100F40000E94A204760121E030E041E050E0B501CA
:100F50008CEB92E00E94A20403E010E021E030E07C
:100F600042E050E0B4018CEB92E00E94A20402E067
:100F700010E021E030E043E050E0B3018CEB92E080
:100F80000E94A20401E010E021E030E044E050E0E3
:100F9000B3018CEB92E00E94A2046B817C81685FBC
:100FA0007F4FE12CF12C06E010E021E030E041E041
:100FB00050E08CEB92E00E94A20403E010E022E0FB
:100FC00030E042E050E069817A818CEB92E00E944F
:100FD000A20421E030E042E050E0B5018CEB92E069
:100FE0000E94A204760104E010E021E030E041E03C
:100FF00050E0B5018CEB92E00E94A20402E010E008
:1010000021E030E043E050E0B4018CEB92E00E943C
:10101000A20403E010E021E030E042E050E0B30140
:101020008CEB92E00E94A204E12CF12C21E030E054
:1010300042E050E0B2018CEB92E00E94A2040F90DB
:101040000F900F900F90DF91CF911F910F91FF9014
:10105000EF90DF90CF90BF90AF909F908F907F9058
:101060006F905F904F903F902F900895089580E08B
:1010700090E008950E9443195F926F927F928F9241
:101080009F92AF92BF92CF92DF92EF92FF920F9317
:101090001F93CF93DF938C01EB017A01690177FDF8
:1010A00034C157FD32C1DC0118968D919C9119977E
:1010B000681779070CF029C11A968D919C911B979E
:1010C000481759070CF021C155968C9155978230DD
:1010D00071F08330E1F0813021F514968D919C916F
:1010E00015970197841B950B7B01EC011AC0F80141
:1010F0008481958101979C01261B370BE90186812C
:1011000097810197BC01641B750B7B010AC0D80154
:1011100016968D919C9117970197861B970BEA0164
:101120007C01D801D496ED91FC91D597309739F098
:10113000B701CE010995EC01A12CB12CBAC0F80180
:1011400097A4F92DF3708F2ED801D2967C90D29768
:10115000772009F46BC0D0966C90A62CB12CCE01F0
:10116000B5010E9408189B01F80151A8E52DF0E097
:10117000C701BF010E940818CB01A29EA001A39E37
:10118000500DB29E500D1124C41BD50BE69FA0013B
:10119000E79F500DF69F500D1124E41AF50A95FEB5
:1011A00008C0472D50E041505109DA01A21BB30B92
:1011B0009D0194FE06C0F80183A990E00197861B6B
:1011C000970B96FC08C0472D50E0782F692FC90176
:1011D000272F362F05C0D801D3967C90472D50E09D
:1011E00097FE10C020FF0EC063E086262F5F3F4FA2
:1011F000249FB001259F700D349F700D11248095A0
:10120000909507C0249FB001259F700D349F700DED
:101210001124680F791F659C30011124669E5001CE
:10122000679EB00C769EB00C112402C0A12CB12C8C
:10123000AE01970181FE08C0F80180A990E00197F6
:10124000BC016C1B7D0BAB0180FE08C0D801D196A0
:101250002C9130E0215031092E193F0992FC09C030
:10126000F80180A990E0722F632F9A01472F562F23
:1012700004C0D801D1968C9190E093FE11C040FF3C
:101280000FC0EA012196C89FB001C99F700DD89F79
:10129000700D1124E901C095D095C60FD71F09C064
:1012A000489FE001499FD00D589FD00D1124C20FD7
:1012B000D31FF80182AD882329F026A937A940ADB4
:1012C00051AD05C0C6010E947C039B01AC01B50174
:1012D0006C0F7D1FD8015C968D919C915D9768176E
:1012E000790798F4C8014A96DF91CF911F910F9129
:1012F000FF90EF90DF90CF90BF90AF909F908F9036
:101300007F906F905F900C94220FDF91CF911F918F
:101310000F91FF90EF90DF90CF90BF90AF909F9094
:101320008F907F906F905F9008958F929F92AF9271
:10133000BF92CF92DF92EF92FF920F931F93CF93C2
:10134000DF938C01CB01F80122AD222329F086A87E
:1013500097A8A0ACB1AC04C00E947C034B015C0117
:101360007801FAE1EF0EF11CF801C48CD58CC0E0D5
:10137000D0E0CC15DD0571F0F801848D958DC8178E
:10138000D90730F4A5019401BE01C7010E94220FC4
:101390002196EFCFDF91CF911F910F91FF90EF90AA
:1013A000DF90CF90BF90AF909F908F900895AF92B5
:1013B000BF92CF92EF92FF920F931F93CF93DF9341
:1013C000EC01262F888D998D009709F040C06A3076
:1013D00059F41D861C862C898E859F8538E0239FB5
:1013E000800D911D112441C06D3009F4AAC08E8971
:1013F0008823C1F03C898C859D8546E0349F800D13
:10140000911D112448855985481759075CF41D869C
:101410001C868E859F8548E0349F800D911D112488
:101420009F878E87EA88FB88088919894E855F85A2
:101430006C857D85CC88CE010E94E80F2C898C8537
:101440009D8536E0239F800D911D112442C06A3096
:1014500079F41D861C862C89FC013696E4918E85D4
:101460009F852E9F800D911D11249F878E8769C0B7
:101470006D3009F466C0FC0134963491631708F4AA
:1014800060C03196E491E61708F45BC0FC01329627
:1014900065917491422F50E0431B510937E0349F0E
:1014A0005001359FB00C1124A60EB71EF5013296DF
:1014B00034913196E491332311F0E1110DC0F5011F
:1014C0003496E4912C898C859D85E29F800D911D39
:1014D00011249D878C8735C0F501359644915E892E
:1014E000552311F16C89E32FF0E0E40FF11D47FD66
:1014F000FA956E9FD0016F9FB00D11244C855D85CC
:101500004A0F5B1FE885F985E417F5076CF41D8623
:101510001C86FC013696E4918E859F856E9F800D1A
:10152000911D11249F878E87EA88FB880889198975
:101530004E855F856C857D85CC88CE010E94E80F45
:10154000BECF81E090E0DF91CF911F910F91FF908E
:10155000EF90CF90BF90AF900895FC01848DDF0194
:10156000A80FB11DA35ABF4F2C91848D90E0019616
:101570008F739927848FA689B7892C93A089B18905
:101580008C91837080648C93938D848D981306C0A6
:101590000288F389E02D80818F7D808308958330D8
:1015A00081F028F4813099F08230A1F008958730DD
:1015B000A9F08830B9F08430D1F4809180008F7D1B
:1015C00003C0809180008F7780938000089584B558
:1015D0008F7702C084B58F7D84BD08958091B0005F
:1015E0008F7703C08091B0008F7D8093B000089505
:1015F000CF93DF9390E0FC01E250FA4F2491FC017D
:10160000E45EF94F8491882361F190E0880F991F7F
:10161000FC01EA52FF4FC591D491FC01EE5EF94FF7
:10162000A591B491611109C09FB7F8948881209564
:1016300082238883EC912E230BC0623061F49FB724
:10164000F8948881322F309583238883EC912E2B58
:101650002C939FBF06C08FB7F894E8812E2B288368
:101660008FBFDF91CF9108953FB7F8948091C30168
:101670009091C401A091C501B091C60126B5A89B67
:1016800005C02F3F19F00196A11DB11D3FBFBA2F14
:10169000A92F982F8827820F911DA11DB11DBC0174
:1016A000CD0142E0660F771F881F991F4A95D1F739
:1016B00008958F929F92AF92BF92CF92DF92EF9256
:1016C000FF926B017C010E94340B4B015C01C11441
:1016D000D104E104F104F1F00E94340BDC01CB01F0
:1016E00088199909AA09BB09883E9340A105B1054B
:1016F00070F321E0C21AD108E108F10888EE880EE3
:1017000083E0981EA11CB11CC114D104E104F104B2
:1017100019F7DDCFFF90EF90DF90CF90BF90AF90A3
:101720009F908F9008952FB7F8946091BF017091AA
:10173000C0018091C1019091C2012FBF08951F92F5
:101740000F920FB60F9211242F933F938F939F9375
:10175000AF93BF938091BF019091C001A091C1014F
:10176000B091C2013091BE0123E0230F2D3720F448
:101770000196A11DB11D05C026E8230F0296A11DEB
:10178000B11D2093BE018093BF019093C001A0932F
:10179000C101B093C2018091C3019091C401A09195
:1017A000C501B091C6010196A11DB11D8093C30171
:1017B0009093C401A093C501B093C601BF91AF91AE
:1017C0009F918F913F912F910F900FBE0F901F907F
:1017D00018950F931F93CF93DF937093010160933C
:1017E00000018091C7019091C801833491054CF0AC
:1017F000835491099093BB018093BA0187E090E0F4
:101800000AC08333910564F0C3979093BB01809322
:10181000BA0186E090E09093BD018093BC013FC087
:101820008732910544F087979093BB018093BA016A
:1018300085E090E0F0CF8C31910544F04C97909387
:10184000BB018093BA0184E090E0E5CF803191053F
:1018500044F040979093BB018093BA0183E090E0FD
:10186000DACF8D30910544F00D979093BB018093B2
:10187000BA0182E090E0CFCF97FD07C09093BB0103
:101880008093BA0181E090E0C6CF8FE097E2909319
:10189000BB018093BA011092BD011092BC01E0918E
:1018A000BC01F091BD013197E730F10508F048C166
:1018B000EC5CFF4F0C941C1880E090E00E94A90F94
:1018C0000E943B068AE090E00E94910FC8E1D0E0C0
:1018D0008091BA019091BB0120E030E04FEF57E0DA
:1018E0006FE170E0FE01E81BF90BCF010E946D066D
:1018F00080910001909101018115984F09F020C15C
:1019000080E090E00E94A90F0E943B0680E090E0FA
:101910006BC080E090E00E94A90F0E943B068AE025
:1019200090E00E94910F20E030E04FEF57E06FE130
:1019300070E08CE090E00E946D0680910001909133
:1019400001018115984F09F0FBC080E090E00E94F2
:10195000A90F0E943B068AE090E00E94910F20E0D0
:1019600030E040EE5FEF60E078EF8CE090E00E94C6
:101970006D06E6C080E090E00E94A90F0E943B0641
:101980000AE010E08091BA019091BB019801281BF8
:10199000390BC9010E94910FCCE0D0E08091BA01CF
:1019A0009091BB0120E030E04FEF57E06FE170E035
:1019B000FE01E81BF90BCF010E946D06809100012A
:1019C000909101018115984F09F0BAC080E090E034
:1019D0000E94A90F0E943B068091BA019091BB0121
:1019E0009801281B390BC9010E94910F8091BA01FF
:1019F0009091BB0120E030E040EE5FEF60E078EFD7
:101A0000FE01E81BF90BCF01B2CF80E090E00E940D
:101A1000A90F0E943B068AE090E00E94910F21E00E
:101A200030E04FEF57E06FE170E081E090E00E941E
:101A30006D0680910001909101018115984F09F088
:101A40007FC080E090E00E94A90F0E943B068AE0E0
:101A500090E00E94910F21E030E040EE5FEF60E007
:101A600078EF81E090E083CF8091BA019091BB0143
:101A70008730910514F086E090E00E94A90F0E9443
:101A80003B068AE090E00E94910F8091BA0190910C
:101A9000BB0121E030E040EE5FEF60E078EF0196BF
:101AA0000E946D0680910001909101018115984F6F
:101AB00009F046C08091BA019091BB018730910531
:101AC00014F086E090E00E94A90F0E943B068AE095
:101AD00090E00E94910F8091BA019091BB0121E0AA
:101AE00030E040EE5FEF60E078EF019640CFC6E077
:101AF000D0E08091BA019091BB01FE01E81BF90B87
:101B0000CF010E94A90F0E943B068AE090E00E944C
:101B1000910F80910001909101018115984F81F4FE
:101B20008091BA019091BB019E01281B390BC9011C
:101B30000E94A90F0E943B068AE090E00E94910F4C
:101B40008091DE029091DF02892B11F00E94F60D48
:101B500064E670E080E090E00E94590B8091C7013C
:101B60009091C80101969093C8018093C701833476
:101B7000910564F064EF71E080E090E00E94590B01
:101B80001092C8011092C70181E001C080E0DF918E
:101B9000CF911F910F910895CF92DF92EF92FF9214
:101BA0000F931F93CF93DF936C017A018B01C0E0F9
:101BB000D0E0CE15DF0581F0D8016D918D01D60101
:101BC000ED91FC910190F081E02DC6010995892BE2
:101BD00011F02196EECF7E01C701DF91CF911F91C9
:101BE0000F91FF90EF90DF90CF9008950F931F9388
:101BF000CF93DF93CDB7DEB729970FB6F894DEBF4A
:101C00000FBECDBF0E94340B0091E4021091E5029B
:101C10002091E6023091E702DC01CB01801B910BA1
:101C2000A20BB30B8C329140A105B10558F3F89487
:101C30008091DA029091DB029A838983E091DE023F
:101C4000F091DF02DF011196808189879091D602A1
:101C5000E091E802F091E9028091EA02992309F407
:101C60002EC09081982B98879081809589238F83AF
:101C70008F818C8388E08B8358856F8149853B8178
:101C80002C8189819A81508347FD252F3A952083A5
:101C9000262F39F0441F00C000006083000000C000
:101CA000F2CF38E04D9160830000019761F7F09327
:101CB000E902E093E80249873B832C8338C0908196
:101CC000982B98879081809589238F838F818E832D
:101CD00088E08D8358856F8149853D812E8189817A
:101CE0009A81508347FD252F00C000C0208300C08B
:101CF00000C000C000C000C060830000262F3A95DD
:101D000041F0441F000000C000C000C000C000C07F
:101D1000E8CF38E04D9100C0608300C0019709F71B
:101D2000F093E902E093E80249873D832E839A838A
:101D3000898378940E94340B6093E4027093E502E7
:101D40008093E6029093E70229960FB6F894DEBFDF
:101D50000FBECDBFDF91CF911F910F910895E9EC98
:101D6000F1E0A089B18982E08C93A485B5851C92AD
:101D7000A685B78580E18C93108EA489B58986E00D
:101D80008C93A289B3898C9180618C93A289B38949
:101D90008C9188608C93A289B3898C9180688C9394
:101DA0000288F389E02D80818F7D80830895CF9311
:101DB000DF93282F30E0F901E651FA4F8491F901C1
:101DC000E250FA4FD491F901E45EF94FC491CC236B
:101DD00091F081110E94CF0AEC2FF0E0EE0FFF1F6F
:101DE000EE5EF94FA591B4919FB7F8948C91D09580
:101DF000D823DC939FBFDF91CF910895CF93DF93DA
:101E0000EFEEF5E08491E3E0F6E0D491E1E2F6E074
:101E1000C491CC2391F081110E94CF0AEC2FF0E005
:101E2000EE0FFF1FE052FA4FA591B491EC91ED2314
:101E300081E090E021F480E002C080E090E0DF915A
:101E4000CF9108957F928F929F92AF92BF92CF923F
:101E5000DF92EF92FF920F931F93CF93DF93FC01DA
:101E60004A01AA24BB24782CC32ED42EE52EFF24AD
:101E7000BC2DA22F8781882361F0889E4001112408
:101E8000792C8C9D60011124BD2D829F700111243D
:101E9000AF2D9585D285E084F1849D1308C0CB01D8
:101EA000880F991F680F791F6E0D7F1D1CC0660F6C
:101EB000771F660F771F6E0D7F1D052F11272227B5
:101EC00033277B01E90EF11C811102C0202F09C0CC
:101ED00090E0809F6001819FD00C909FD00C1124D6
:101EE0002D2DE701288382859B01280F311DE901F3
:101EF00078828385EB01C80FD11DB8838485FB01EF
:101F0000E80FF11DA083DF91CF911F910F91FF90FA
:101F1000EF90DF90CF90BF90AF909F908F907F9089
:101F20000895EF92FF920F931F9320EEE22EFF246D
:101F3000FA9402E010E022E030E046E050E0BC011C
:101F40008CEB92E00E94A2041F910F91FF90EF9002
:101F50000895EF92FF920F931F93CF93DF932091F9
:101F6000C7013091C8012833310554F02091000198
:101F7000309101012F31310531F0C0E0D8EF05C0BB
:101F8000CFEFDFEF02C0CFE1D0E0EE24EA9427E00C
:101F9000F22E8C0123E130E040E050E063E170E09C
:101FA0008CEB92E00E9418047E0101E010E023E037
:101FB00030E040E050E062E170E08CEB92E00E94A3
:101FC000B903DF91CF911F910F91FF90EF9008958A
:101FD0002F923F924F925F926F927F928F929F9239
:101FE000AF92BF92CF92DF92EF92FF920F931F9327
:101FF000CF93DF93CDB7DEB76B970FB6F894DEBF04
:102000000FBECDBF9B8F8A8F5B011A01D22E1F831B
:102010000E833701C982DC0158962D913C91599766
:102020002115310509F0E6C018968D919C911997FC
:10203000681779070CF0CDC11A968D919C911B976A
:10204000481759070CF0C5C18C2C912CFB0126E0D8
:10205000C29EE00DF11D1124FB87EA871E161F06A4
:102060000CF0B7C1A40183E0440F551F8A95E1F736
:102070005D874C87CA01820D931D181619060CF056
:10208000A8C157968C91811104C05FEA5D1508F4D0
:10209000D394AA8DBB8DED91FC9111970284F385A9
:1020A000E02DCD010995B5E0DB9EC0011124F501BD
:1020B0003596FF87EE87BB82AA8225019C012A19EB
:1020C0003B09398B288BA101485F5F4F5B8B4A8BA3
:1020D000E889F989E40DF51DE052FF4F54915887C6
:1020E00061013D822C82888580FF13C0AA8DBB8D43
:1020F000ED91FC91B981B13031F40484F585E02D86
:102100002E813F8116C00684F785E02DEE80FF808A
:102110001AC0EE81FF81E615F705F1F0AA8DBB8D9F
:10212000ED91FC91B981B13051F40484F585E02D35
:102130009301A601B2018A8D9B8D09950DC006847D
:10214000F785E02D7301840194014C815D816A81E2
:102150007B818A8D9B8D0995E885E695E887FFEF61
:10216000CF1ADF0A2C813D81280D391D3D832C8338
:102170004A895B89C416D50609F0B5CF5FEF451AC9
:10218000550A8A819B81880D991D9B838A83AE8520
:10219000BF854A165B0609F09BCFEE81FF81E615ED
:1021A000F70509F4F4C0EA8DFB8DA081B181F981B6
:1021B000F13079F4B5016B5F7F4F5096ED91FC9152
:1021C0005197830128E030E0A1018A8D9B8D09950C
:1021D000DEC06A857B85681979091E96ED91FC91B0
:1021E0001F9773010C851D859401A1018A8D9B8D1C
:1021F0000995CDC0F9013496E491DE1AF9013296C1
:1022000085919491B7E0DB9E800D911D1124F90119
:10221000259134913B8B2A8BFC0125913491290126
:10222000FC013296C490319634913E8732961491D7
:102230003196D4904981423058F0612E012E000C25
:1022400077088D2D0D2C000C990B9987888704C079
:1022500019861886612C712CAA8DBB8DED91FC918D
:1022600011970284F385E02DCD010995B9818B2E5C
:10227000912C689CC001699C900D789C900D112454
:10228000FC01EA0DFB1DFD87EC871A82712C612C85
:10229000E12F110FFF0B95012E0F3F1F3B872A8760
:1022A000AC0CB11CA5014E0F5F1F5F8B4E8BC101A3
:1022B0008D0D911DD7FC9A95998F888F9E856916F3
:1022C00008F065C0862D90E048855985480F591F54
:1022D000489D9001499D300D589D300D1124D1012C
:1022E000A20FB31FB98BA88BEC85FD85FD83EC8312
:1022F000AA84BB84DA80FA85DF1A288D398D280FED
:10230000391F3D8B2C8B8D2D8A0D4E895F89A4162C
:10231000B506C1F1877041F4C2010196EA89FB89D3
:10232000E40DF51D74902C0177FE21C0AA8DBB8DA4
:10233000ED91FC91B981B13061F40484F585E02D13
:102340002E813F814C895D89B5018A8D9B8D0995D0
:102350000EC00684F785E02DEE80FF808401940195
:10236000488959896C817D818A8D9B8D0995770C6F
:10237000EFEFAE1ABE0A2C813D81280D391D3D8339
:102380002C83C1CF3A813C0D3A83639497CFAA8DB9
:10239000BB8DED91FC9111970688F789E02DCD0159
:1023A0006B960FB6F894DEBF0FBECDBFDF91CF9115
:1023B0001F910F91FF90EF90DF90CF90BF90AF9063
:1023C0009F908F907F906F905F904F903F902F9055
:1023D00009946B960FB6F894DEBF0FBECDBFDF91A8
:1023E000CF911F910F91FF90EF90DF90CF90BF9012
:1023F000AF909F908F907F906F905F904F903F90A5
:102400002F9008956115710579F0FB01019000206E
:10241000E9F73197AF01461B570BDC01ED91FC91B9
:102420000280F381E02D099480E090E008958F927E
:102430009F92AF92BF92EF92FF920F931F93CF9311
:10244000DF93CDB7DEB7A1970FB6F894DEBF0FBE0E
:10245000CDBF7C01FA01CB0119A2223008F42AE099
:102460008E010F5D1F4F822E912CA12CB12CBF012C
:10247000A50194010E94D217F901CA010150110966
:102480006A3014F4605D01C0695CD8016C93232B41
:10249000242B252B61F7B801C7010E940212A196D7
:1024A0000FB6F894DEBF0FBECDBFDF91CF911F9165
:1024B0000F91FF90EF90BF90AF909F908F900895F5
:1024C000CF92DF92EF92FF92CF93DF936C01990F3F
:1024D000EE08FF08F7FE15C06DE289EC91E00E945E
:1024E000B312EC0144275527BA014C195D096E0956
:1024F0007F092AE089EC91E00E941712C80FD91FCA
:1025000008C02AE0B701A60189EC91E00E941712E9
:10251000EC0164E971E089EC91E00E9402128C0FF9
:102520009D1FDF91CF91FF90EF90DF90CF900895A6
:102530000C940212FC01538D448D252F30E0842F22
:1025400090E0821B930B541710F0CF9608950197DB
:10255000089589EC91E00E94660321E0892B09F43B
:1025600020E0822F0895EF92FF920F931F93CF9355
:10257000DF93EC0181E0888F9B8D8C8D981305C0D3
:10258000E889F989808185FD26C0F62E0B8D10E043
:102590000F5F1F4F0F731127E02E8C8DE8120CC0B8
:1025A0000FB607FCFACFE889F989808185FFF5CF5E
:1025B000CE010E94AD0AF1CF8B8DFE01E80FF11D17
:1025C000E35AFF4FF0829FB7F8940B8FEA89FB899B
:1025D000808180620AC09FB7F894EE89FF8960838A
:1025E000E889F98980818370806480839FBF81E05E
:1025F00090E0DF91CF911F910F91FF90EF900895A0
:10260000CF93DF93EC01888D8823C9F0EA89FB8999
:10261000808185FD05C0A889B9898C9186FD0FC090
:102620000FB607FCF5CF808185FFF2CFA889B98965
:102630008C9185FFEDCFCE010E94AD0AE7CFDF91EF
:10264000CF9108951F920F920FB60F9211242F93DE
:102650003F934F935F936F937F938F939F93AF932A
:10266000BF93EF93FF9389EC91E00E94AD0AFF9135
:10267000EF91BF91AF919F918F917F916F915F91FA
:102680004F913F912F910F900FBE0F901F90189573
:102690001F920F920FB60F9211242F938F939F9337
:1026A000EF93FF93E091D901F091DA018081E091FD
:1026B000DF01F091E00182FD12C090818091E20182
:1026C0008F5F8F732091E301821751F0E091E20157
:1026D000F0E0E753FE4F958F8093E20101C08081C7
:1026E000FF91EF919F918F912F910F900FBE0F90BF
:1026F0001F9018958DE591E09093BD028093BC02E8
:102700008091DE029091DF02009711F00E94BA18CA
:102710008091DC0287FD03C060E00C94F80A089504
:10272000CF93DF931092CC011092CB0188EE93E00F
:10273000A0E0B0E08093CD019093CE01A093CF01B3
:10274000B093D0018FE191E09093CA018093C901C9
:1027500085EC90E09093D6018093D50184EC90E0D5
:102760009093D8018093D70180EC90E09093DA01A8
:102770008093D90181EC90E09093DC018093DB01A0
:1027800082EC90E09093DE018093DD0186EC90E096
:102790009093E0018093DF011092E2011092E30137
:1027A0001092E4011092E50110926C0210926D02F9
:1027B00010926E0210926F021092700210927102CB
:1027C00010927202109273021092740210927502AB
:1027D000109276021092770210927802109279028B
:1027E00010927A0210927B021092BF021092BE02E7
:1027F00081E391E09093BD028093BC0220E230E03F
:102800003093C1022093C00288E090E09093C3020D
:102810008093C2023093C5022093C4029093C702F2
:102820008093C6021092D1021092C9021092C8027F
:102830001092CB021092CA0281E08093D0022FEF57
:102840003FEF3093CF022093CE023093CD022093FE
:10285000CC028093D2021092D3021092D502109231
:10286000D4021092D7021092DD021092E40210926C
:10287000E5021092E6021092E7028093E302809351
:10288000E0021092E10292E09093E2028093D6027D
:10289000C0E0D3E0D093DB02C093DA0280E093E0A3
:1028A0000E9422189093DF028093DE02009769F065
:1028B000FC019E01119221503040E1F780E091E04F
:1028C0009093D9028093D80208C01092DB02109234
:1028D000DA021092D9021092D80286E08093DC02CC
:1028E0008091D702882339F061E086E00E94F80ADF
:1028F00086E00E94D70EE2E2F6E0E491F0E0EE0F0F
:10290000FF1FEE5EF94F859194919093E9028093B9
:10291000E802E4E0F6E0E491E093EA028DE591E07C
:102920009093BD028093BC028CE08093EB0280E226
:102930008093EC0288E08093ED021092EE021092F8
:10294000EF021092F1021092F0021092F60280E073
:1029500098EF9093AF028093AE0280EE97E0909351
:10296000B1028093B00280EE9FEF9093B302809308
:10297000B2028FE190E09093B5028093B4028FE1B0
:1029800098EF9093B7028093B6028FEF97E0909301
:10299000B9028093B8028EEF9FEF9093BB028093B1
:1029A000BA02DF91CF910895789484B5826084BD96
:1029B00084B5816084BD85B5826085BD85B5816043
:1029C00085BD80916E00816080936E0010928100C1
:1029D000809181008260809381008091810081607C
:1029E000809381008091800081608093800080913D
:1029F000B10084608093B1008091B00081608093C9
:102A0000B00080917A00846080937A0080917A008F
:102A1000826080937A0080917A00816080937A004E
:102A200080917A00806880937A001092C1001092A1
:102A3000AA021092AB021092AC021092AD02109258
:102A400068021092690210926A0210926B020E9450
:102A5000930B6B017C014B015C0128EB820E2BE098
:102A6000921EA11CB11C0E94930B6C157D058E0556
:102A70009F0528F086169706A806B906A0F789ECE8
:102A800091E09093A9028093A8020E94AF0E0E9449
:102A9000930B609368027093690280936A0290932B
:102AA0006B0265E871E08091A8029091A9020E94F2
:102AB00098120E94930B6B017C014B015C013AE080
:102AC000830E911CA11CB11C0E94930B6C157D05FB
:102AD0008E059F0528F086169706A806B906A0F76A
:102AE00081E080937C0262E085E00E94F80A0E9407
:102AF000FE0E90931201809311010E94AF0E8091FF
:102B0000DC0287FD07C061E00E94F80A8091DC02C8
:102B10000E94D70E81E08093D7021092D20260917A
:102B2000DD02683021F12091DE023091DF02615038
:102B300031F070E08FEF97E00E94F41702C060E080
:102B400070E0F9014091DA025091DB02CF01821B63
:102B5000930B8417950740F44081469FC001479F1F
:102B6000900D11249193EECF88E08093DD02809147
:102B7000AE029091AF029093CF028093CE029093D9
:102B8000CD028093CC0224EFC22EDD24D394E12C1D
:102B9000F12C11E00AEF0E94930B672B682B692B35
:102BA00041F40E94930B623071058105910508F490
:102BB00010C10E94930B8090000390900103A0909D
:102BC0000203B0900303681579058A059B0540F45C
:102BD00060930003709301038093020390930303B7
:102BE0008090000390900103A0900203B090030333
:102BF0009B01AC01281939094A095B0949015A01AD
:102C00003AEF83169104A104B10408F4E2C0609382
:102C10000003709301038093020390930303C09217
:102C20007402D0927502E0927602F09277021092CE
:102C300078021092790210927A0210927B028091AF
:102C40006C0290916D02A0916E02B0916F02809320
:102C5000700290937102A0937202B09373020E946B
:102C6000930B60936C0270936D0280936E0290934D
:102C70006F020E94930B60936802709369028093C5
:102C80006A0290936B020E94930B4B015C0167E90F
:102C900071E08091A8029091A9020E9498122AE006
:102CA00041E050E060E070E08091A8029091A902BC
:102CB0000E9417126EE971E08091A8029091A9021A
:102CC0000E9498122AE0B501A4018091A802909177
:102CD000A9020E94171260EA71E08091A802909107
:102CE000A9020E94981280916C0290916D02A091AD
:102CF0006E02B0916F02B501A401481B590B6A0B1B
:102D00007B0B2AE08091A8029091A9020E941712E1
:102D100060EA71E08091A8029091A9020E94981245
:102D200040916C0250916D0260916E0270916F0241
:102D30008091700290917102A0917202B091730221
:102D4000481B590B6A0B7B0B2AE08091A8029091DB
:102D5000A9020E94171262EA71E08091A802909184
:102D6000A9020E9498120E94930BAB01BC012AE0B9
:102D70008091A8029091A9020E941712C091A80206
:102D8000D091A90264EA71E0CE010E94021264E9C6
:102D900071E0CE010E9402120E94930B2B013C01B4
:102DA0004B015C0145E0840E911CA11CB11C0E94EA
:102DB000930B641575058605970508F0ECC00E9415
:102DC000930B60936C0270936D0280936E029093EC
:102DD0006F0289EC91E00E946603181619067CF5D3
:102DE000C0911301D0911401C233D10524F09AE0AF
:102DF000A92EB12C03C085E0A82EB12C89EC91E05E
:102E00000E9444038B32910529F08D97C1F4CA0DBD
:102E1000DB1D05C0C630D10534F0CA19DB09D093DB
:102E20001401C09313016BEA71E089EC91E00E94F8
:102E3000981280911301909114010E9460120E94D7
:102E4000FE0EC1E0D0E0009711F0C0E0D0E0892B89
:102E5000E9F48091110190911201892BB9F48091CC
:102E6000FE029091FF020196833091052CF490931D
:102E7000FF028093FE0204C01092FF021092FE0235
:102E80008091FE029091FF020E946012D093120185
:102E9000C09311018091FC029091FD028130910557
:102EA00009F461C08230910509F462C0892B09F0F0
:102EB0006FC08091FB0281111CC01093FB02E2E005
:102EC000F1E001900020E9F731979F012250314055
:102ED0000203C001039F900D11249093FA02809386
:102EE000F9028091C4029091C5029093F8028093F8
:102EF000F70260E070E08CEB92E00E94950980910F
:102F0000F7029091F8029093C9028093C802109240
:102F1000CB021092CA0201979093F8028093F702B5
:102F20002091F9023091FA02821793071CF4109253
:102F3000FB0226C062E071E08CEB92E00E949812E6
:102F40008091DE029091DF02892B11F00E94F60D34
:102F50006091130170911401072E000C880B990BDE
:102F60000E94590B15C06FE170E080E090E004C052
:102F700060E078EF80E090E00E94E90B882341F068
:102F80008091FE029091FF029093FD028093FC02DB
:102F90000E94720300CE86169706A806B90608F0AE
:102FA00006CF0DCFA1E21A2EAA1BBB1BFD010DC03F
:102FB000AA1FBB1FEE1FFF1FA217B307E407F507E9
:102FC00020F0A21BB30BE40BF50B661F771F881FC5
:102FD000991F1A9469F760957095809590959B015B
:102FE000AC01BD01CF010895AA1BBB1B51E107C075
:102FF000AA1FBB1FA617B70710F0A61BB70B881F89
:10300000991F5A95A9F780959095BC01CD01089517
:1030100097FB072E16F4009407D077FD09D00E9485
:10302000F41707FC05D03EF4909581959F4F0895C5
:10303000709561957F4F0895EE0FFF1F0590F491F5
:10304000E02D09940F931F93CF93DF938230910566
:1030500010F482E090E0E0910603F091070320E095
:1030600030E0A0E0B0E0309719F140815181028159
:10307000138148175907C8F08417950769F410970A
:1030800031F012960C93129713961C9327C000935D
:1030900006031093070322C02115310519F04217CA
:1030A000530718F49A01BD01EF01DF01F801DBCFEE
:1030B00021153105F9F0281B390B2430310580F436
:1030C0008A819B816115710521F0FB0193838283C5
:1030D00004C09093070380930603FE01329644C018
:1030E000FE01E20FF31F819391932250310939833E
:1030F00028833AC02091040330910503232B41F427
:103100002091170130911801309305032093040397
:1031100020911501309116012115310541F42DB78B
:103120003EB74091190150911A01241B350BE091D3
:103130000403F0910503E217F307A0F42E1B3F0BE5
:103140002817390778F0AC014E5F5F4F2417350719
:1031500048F04E0F5F1F5093050340930403819383
:10316000919302C0E0E0F0E0CF01DF91CF911F9199
:103170000F910895CF93DF93009709F481C0FC016C
:10318000329713821282A0910603B0910703109721
:1031900081F420813181820F931F209104033091AB
:1031A00005032817390751F5F0930503E09304034D
:1031B00067C0ED0120E030E0CE17DF0740F44A8120
:1031C0005B819E0141155105F1F0EA01F5CFD383F2
:1031D000C28340815181840F951FC817D90759F4C4
:1031E00088819981840F951F0296918380838A81BB
:1031F0009B81938382832115310529F4F093070382
:10320000E09306033DC0E901FB83EA8349915991AC
:10321000C40FD51FEC17FD0761F480819181840FE5
:10322000951F0296E90199838883828193819B830C
:103230008A83E0E0F0E012968D919C9113970097BD
:1032400019F0FD01DC01F7CF8D919C9111979D0143
:103250002E5F3F4F820F931F20910403309105038F
:103260002817390769F4309729F410920703109250
:10327000060302C013821282B0930503A0930403D5
:10328000DF91CF91089581E090E0F8940C94481973
:1032900013E0C9E1D3E004C0FE010E941C1821968E
:0A32A000CA31D107C9F7F894FFCF37
:1032AA001F00537472616E676520517561726B738A
:1032BA000001001E0000000803800000000000B3A7
:1032CA0012CC0D9A1200136603440358030000003F
:1032DA0000D709CC0D370836083A08590582055A2D
:1032EA000576056A0589055905A403A3032005E7A0
:1032FA0004A20485041804B90300000000D709CC0D
:10330A000D370836083C08590582055A0576056ABC
:10331A000589055905A403A3032005E704A204951A
:10332A00091804B903564D4450565F317C315F5633
:10333A004D4450560D0A00564D4450455F003A32EE
:10334A003A007C005F564D445045007363726F6CBF
:0A335A006C2064656C61793A200074
:107E0000112484B714BE81FFF0D085E080938100F7
:107E100082E08093C00088E18093C10086E0809377
:107E2000C20080E18093C4008EE0C9D0259A86E02C
:107E300020E33CEF91E0309385002093840096BBD3
:107E4000B09BFECF1D9AA8958150A9F7CC24DD24C4
:107E500088248394B5E0AB2EA1E19A2EF3E0BF2EE7
:107E6000A2D0813461F49FD0082FAFD0023811F036
:107E7000013811F484E001C083E08DD089C08234E0
:107E800011F484E103C0853419F485E0A6D080C0E4
:107E9000853579F488D0E82EFF2485D0082F10E0AE
:107EA000102F00270E291F29000F111F8ED06801E7
:107EB0006FC0863521F484E090D080E0DECF843638
:107EC00009F040C070D06FD0082F6DD080E0C81688
:107ED00080E7D80618F4F601B7BEE895C0E0D1E017
:107EE00062D089930C17E1F7F0E0CF16F0E7DF06D8
:107EF00018F0F601B7BEE89568D007B600FCFDCFD4
:107F0000A601A0E0B1E02C9130E011968C91119780
:107F100090E0982F8827822B932B1296FA010C0160
:107F200087BEE89511244E5F5F4FF1E0A038BF0790
:107F300051F7F601A7BEE89507B600FCFDCF97BE46
:107F4000E89526C08437B1F42ED02DD0F82E2BD052
:107F50003CD0F601EF2C8F010F5F1F4F84911BD097
:107F6000EA94F801C1F70894C11CD11CFA94CF0C13
:107F7000D11C0EC0853739F428D08EE10CD085E9AC
:107F80000AD08FE07ACF813511F488E018D01DD067
:107F900080E101D065CF982F8091C00085FFFCCF94
:107FA0009093C60008958091C00087FFFCCF809118
:107FB000C00084FD01C0A8958091C6000895E0E648
:107FC000F0E098E1908380830895EDDF803219F02E
:107FD00088E0F5DFFFCF84E1DECF1F93182FE3DFCA
:107FE0001150E9F7F2DF1F91089580E0E8DFEE27F6
:047FF000FF270994CA
:027FFE00040479
:0400000300007E007B
:00000001FF