:100000000C945E000C9486000C9486000C94860080
:100010000C9486000C9486000C9486000C94860048
:100020000C9486000C9486000C9486000C94860038
:100030000C9486000C9486000C9486000C94860028
:100040000C947B030C9486000C9461020C943B028C
:100050000C9486000C9486000C9486000C94860008
:100060000C94C5030C9486000000000024002700B7
:100070002A0000000008000201000003040700003D
:10008000000000000000010204081020408001026E
:1000900004081020010204081020000000002500C0
:1000A00028002B00040404040404040402020202D5
:1000B0000202030303030303A90A990A11241FBEC2
:1000C000CFEFD8E0DEBFCDBF23E0A0E4B2E001C0B7
:1000D0001D92AA3EB207E1F712E0A0E0B1E0EEE324
:1000E000FDE102C005900D92A034B107D9F710E0F0
:1000F000CDE5D0E004C02197FE010E94660DCC350D
:10010000D107C9F70E94E1060C94920E0C940000EE
:100110000895CF93DF93AC01E091D702F091D8021C
:100120003097F1F09091D6028091D5029817C0F0E7
:1001300090E0292F30E02617370754F4D901A05C4E
:10014000BD4FEA01C20FD31F28812C939F5FF1CFCF
:100150001092D6026093D502CB01DF91CF91099422
:10016000DF91CF9108950895FC01538D448D252F83
:1001700030E0842F90E0821B930B541710F0CF9641
:10018000089501970895FC01918D828D981761F073
:10019000828DDF01A80FB11D5D968C91928D9F5FBE
:1001A0009F73928F90E008958FEF9FEF0895FC0169
:1001B000918D828D981731F0828DE80FF11D858D1C
:1001C00090E008958FEF9FEF0895FC01918D228DAF
:1001D000892F90E0805C9F4F821B91098F73992734
:1001E000089580EE92E00E94E50021E0892B09F459
:1001F00020E0822F0895FC01848DDF01A80FB11D3E
:10020000A35ABF4F2C91848D90E001968F7399274C
:10021000848FA689B7892C93A089B1898C9183702A
:1002200080648C93938D848D981306C00288F38923
:10023000E02D80818F7D80830895EF92FF920F9350
:100240001F93CF93DF93EC0181E0888F9B8D8C8D82
:10025000981305C0E889F989808185FD26C0F62EAE
:100260000B8D10E00F5F1F4F0F731127E02E8C8D49
:10027000E8120CC00FB607FCFACFE889F989808133
:1002800085FFF5CFCE010E94FB00F1CF8B8DFE01E3
:10029000E80FF11DE35AFF4FF0829FB7F8940B8FE0
:1002A000EA89FB89808180620AC09FB7F894EE8951
:1002B000FF896083E889F989808183708064808305
:1002C0009FBF81E090E0DF91CF911F910F91FF9050
:1002D000EF900895CF93DF93EC01888D8823C9F0C8
:1002E000EA89FB89808185FD05C0A889B9898C913F
:1002F00086FD0FC00FB607FCF5CF808185FFF2CFDA
:10030000A889B9898C9185FFEDCFCE010E94FB00B1
:10031000E7CFDF91CF91089580E090E0892B29F01D
:100320000E94F10081110C940000089585ED8093E6
:10033000BC008091BC0084FDFCCF1092D2020895D5
:1003400040918002262F30E0240F311D21323105EB
:10035000DCF42091D2022430C9F4FC0180E090E06A
:10036000861758F4309180022191DC01A05ABD4FCC
:10037000A30FB11D2C930196F3CF80918002680FDB
:100380006093800280E0089581E0089582E00895FE
:10039000E091D6028091D502E81730F4F0E0E05CFD
:1003A000FD4F808190E008958FEF9FEF0895909129
:1003B000D6028091D502981750F4E92FF0E0E05C66
:1003C000FD4F208130E09F5F9093D60202C02FEF57
:1003D0003FEFC90108958091D50290E02091D602A7
:1003E000821B91090895CF93DF93CB01EA01642F1B
:1003F0000E94A001CE01DF91CF910895CF93DF93AA
:100400001F92CDB7DEB7698361E0CE0101960E94ED
:10041000A00181E090E00F90DF91CF9108950895C1
:1004200080E090E008959091D5028091D6029817CF
:1004300061F08091D902811108C085EC93E00E949F
:10044000D70190930301809302010895CF93DF9326
:10045000C0E0D0E040E050E0BA01CE010E941D05AE
:100460002196C11581E0D807A9F7DF91CF910C94AF
:1004700091050E948D0E1F920F920FB60F921124BC
:100480002F933F934F935F936F937F938F939F939C
:10049000AF93BF93EF93FF9380EE92E00E94FB0037
:1004A000FF91EF91BF91AF919F918F917F916F914C
:1004B0005F914F913F912F910F900FBE0F901F9022
:1004C00018951F920F920FB60F9211242F938F93AE
:1004D0009F93EF93FF93E091F002F091F1028081FE
:1004E000E091F602F091F70282FD12C090818091B6
:1004F000F9028F5F8F732091FA02821751F0E09119
:10050000F902F0E0E052FD4F958F8093F90201C0AF
:100510008081FF91EF919F918F912F910F900FBE4E
:100520000F901F90189590E0FC01EE58FF4F24911A
:10053000FC01EA57FF4F3491FC01EC55FF4FE49169
:10054000EE2309F43CC0222339F1233091F038F432
:100550002130A9F0223001F584B58F7D12C02730FB
:1005600091F02830A1F02430B9F4809180008F7D83
:1005700003C0809180008F77809380000DC084B588
:100580008F7784BD09C08091B0008F7703C08091C0
:10059000B0008F7D8093B000F0E0EE0FFF1FE656B5
:1005A000FF4FA591B4919FB7F894611104C08C914D
:1005B0003095382302C0EC913E2B3C939FBF0895A9
:1005C000CF93DF9390E0FC01EA57FF4F2491FC01A9
:1005D000EC55FF4F8491882361F190E0880F991FBB
:1005E000FC01E859FF4FC591D491FC01E656FF4F3D
:1005F000A591B491611109C09FB7F89488812095A5
:1006000082238883EC912E230BC0623061F49FB764
:10061000F8948881322F309583238883EC912E2B98
:100620002C939FBF06C08FB7F894E8812E2B2883A8
:100630008FBFDF91CF9108953FB7F8948091C802A2
:100640009091C902A091CA02B091CB0226B5A89B95
:1006500005C02F3F19F00196A11DB11D3FBFBA2F54
:10066000A92F982F8827820F911DA11DB11DBC01B4
:10067000CD0142E0660F771F881F991F4A95D1F779
:1006800008958F929F92AF92BF92CF92DF92EF9296
:10069000FF926B017C010E941C034B015C01C114A1
:1006A000D104E104F104F1F00E941C03DC01CB0150
:1006B00088199909AA09BB09883E9340A105B1058B
:1006C00070F321E0C21AD108E108F10888EE880E23
:1006D00083E0981EA11CB11CC114D104E104F104F3
:1006E00019F7DDCFFF90EF90DF90CF90BF90AF90E4
:1006F0009F908F9008951F920F920FB60F92112422
:100700002F933F938F939F93AF93BF938091DC027E
:100710009091DD02A091DE02B091DF023091C7021C
:1007200023E0230F2D3720F40196A11DB11D05C034
:1007300026E8230F0296A11DB11D2093C7028093C6
:10074000DC029093DD02A093DE02B093DF02809181
:10075000C8029091C902A091CA02B091CB02019641
:10076000A11DB11D8093C8029093C902A093CA0233
:10077000B093CB02BF91AF919F918F913F912F91F9
:100780000F900FBE0F901F9018951F920F920FB6EB
:100790000F9211242F933F934F935F936F937F9307
:1007A0008F939F93AF93BF93EF93FF938091B90083
:1007B000887F803609F49CC068F5883209F45BC0F4
:1007C00090F4803109F454C038F4882309F4F6C059
:1007D000883009F44DC0F6C0883109F44CC080322D
:1007E00009F45DC0EFC0803409F468C048F4803378
:1007F00009F455C0883309F0E5C08093A302D8C03E
:10080000803509F44FC0883509F45DC0883409F09B
:10081000D9C0D6C0883909F4C7C0A8F4883709F40C
:1008200067C038F4883609F463C0803709F460C0C3
:10083000C9C0883809F4B8C0803909F45FC080386D
:1008400009F0C0C05BC0803B09F486C038F4803A30
:1008500009F466C0883A09F47FC0B4C0803C09F44A
:10086000A7C0883C09F4A4C0883B09F48AC0AAC088
:100870008091C60210C09091C5028091C402981761
:1008800070F5E091C50281E08E0F8093C502F0E023
:10089000EC55FD4F80818093BB0085EC86C0809332
:1008A000A3028EC0E091C50281E08E0F8093C50245
:1008B0008091BB00F0E0EC55FD4F80839091C50224
:1008C0008091C4026EC0E091C50281E08E0F8093DA
:1008D000C5028091BB00F0E0EC55FD4F8083809114
:1008E000D10281116DC081E08093D00284EA61C0A1
:1008F00083E08093D2021092A202CFCF8091A20215
:10090000803208F051C0E091A20281E08E0F809306
:10091000A2028091BB00F0E0EE57FD4F8083BDCF77
:1009200085EC8093BC001092D2028091A2028032AA
:1009300030F4E091A202F0E0EE57FD4F108260919A
:10094000A20270E0E091CC02F091CD0282E892E048
:1009500009951092A20236C084E08093D2021092D0
:10096000810210928002E091CE02F091CF020995AF
:1009700080918002811105C081E0809380021092F5
:100980006002E091810281E08E0F80938102F0E0AD
:10099000E05AFD4F80818093BB009091810280914D
:1009A0008002981708F479CF85E88093BC000AC0CC
:1009B00085EC8093BC001092D20204C01092A30276
:1009C0000E949601FF91EF91BF91AF919F918F91FE
:1009D0007F916F915F914F913F912F910F900FBE3B
:1009E0000F901F901895CF92DF92EF92FF920F9386
:1009F0001F93CF93DF936C017A018B01C0E0D0E0AD
:100A0000CE15DF0581F0D8016D918D01D601ED91F4
:100A1000FC910190F081E02DC6010995892B11F020
:100A20002196EECF7E01C701DF91CF911F910F91EB
:100A3000FF90EF90DF90CF9008958F929F92AF92AA
:100A4000BF92CF92DF92EF92FF92CF93DF932091EC
:100A5000D3033091D4038217930708F057C04B019A
:100A6000AA24BB24F82DC52ED62EE72EFF24AC2DAC
:100A7000E42F2091D803222361F0829E40011124AB
:100A8000F92D2C9D60011124AD2D249FE00111242E
:100A9000ED2F3091DE03B091DB03E090D903F090AD
:100AA000DA033B1308C09C01220F331F820F931FF0
:100AB0008E0D9F1D19C0880F991F880F991F8E0DCD
:100AC0009F1D472F552766277727EC01C30FD11DA0
:100AD000222349F030E0249F7001259FF00C349FC1
:100AE000F00C11244F2D48832091DB03EC01C20F41
:100AF000D11DF8832091DC03EC01C20FD11DA88326
:100B00002091DD03DC01A20FB11DEC93DF91CF91A9
:100B1000FF90EF90DF90CF90BF90AF909F908F901D
:100B200008950F931F93CF93DF93CDB7DEB7299727
:100B30000FB6F894DEBF0FBECDBF8091D903909160
:100B4000DA03892B09F4A2C00E941C030091DF0381
:100B50001091E0032091E1033091E203DC01CB012D
:100B6000801B910BA20BB30B8C329140A105B105F8
:100B700058F3F8948091D5039091D6039A83898392
:100B8000E091D903F091DA03DF0111968081898722
:100B90009091D103E091E303F091E4038091E503A8
:100BA000992309F42EC09081982B98879081809585
:100BB00089238F838F818C8388E08B8358856F8115
:100BC00049853B812C8189819A81508347FD252F5E
:100BD0003A952083262F39F0441F00C0000060831F
:100BE000000000C0F2CF38E04D9160830000019713
:100BF00061F7F093E403E093E30349873B832C839D
:100C000038C09081982B98879081809589238F8315
:100C10008F818E8388E08D8358856F8149853D81E2
:100C20002E8189819A81508347FD252F00C000C005
:100C3000208300C000C000C000C000C0608300006E
:100C4000262F3A9541F0441F000000C000C000C0AC
:100C500000C000C0E8CF38E04D9100C0608300C004
:100C6000019709F7F093E403E093E30349873D8399
:100C70002E839A83898378940E941C036093DF03F8
:100C80007093E0038093E1039093E20329960FB6FB
:100C9000F894DEBF0FBECDBFDF91CF911F910F91B2
:100CA0000895E0EEF2E0A089B18982E08C93A485FA
:100CB000B5851C92A685B78580E18C93108EA4899A
:100CC000B58986E08C93A289B3898C9180618C93DD
:100CD000A289B3898C9188608C93A289B3898C9105
:100CE00080688C930288F389E02D80818F7D8083DA
:100CF0000895CF92DF92EF92FF920F931F932FB739
:100D0000F894C090DC02D090DD02E090DE02F0901A
:100D1000DF022FBFDC01CB018C0D9D1DAE1DBF1D61
:100D20004FB7F8940091DC021091DD022091DE02B1
:100D30003091DF024FBF0C151D052E053F0528F031
:100D400080179107A207B30758F71F910F91FF90E3
:100D5000EF90DF90CF900895CF92DF92EF92FF92C5
:100D6000CF93DF936B017C01C0E0D0E08091D3038F
:100D70009091D403C817D90738F4B701A601CE0162
:100D80000E941D052196F2CFDF91CF91FF90EF9049
:100D9000DF90CF900C9491056115710579F0FB01FE
:100DA00001900020E9F73197AF01461B570BDC019A
:100DB000ED91FC910280F381E02D099480E090E0B8
:100DC0000895CF93DF93CDB7DEB7AB970FB6F89406
:100DD000DEBF0FBECDBF789484B5826084BD84B57C
:100DE000816084BD85B5826085BD85B5816085BD26
:100DF00080916E00816080936E00109281008091DE
:100E00008100826080938100809181008160809365
:100E10008100809180008160809380008091B1008A
:100E200084608093B1008091B00081608093B000B5
:100E300080917A00846080937A0080917A00826049
:100E400080937A0080917A00816080937A0080910B
:100E50007A00806880937A001092C1001092C103DA
:100E60001092C2031092C3031092C40310927F0326
:100E700010928003109281031092820368EB7BE052
:100E800080E090E00E94790680EE92E09093C003AB
:100E90008093BF030E9451062FB7F8948091DC0223
:100EA0009091DD02A091DE02B091DF022FBF80930E
:100EB0007F0390938003A0938103B09382036EE23B
:100EC00072E08091BF039091C0030E94CC066AE05B
:100ED00070E080E090E00E94790681E080939303C7
:100EE0006091D803633321F12091D9033091DA0363
:100EF000615031F070E08FEF92E30E94520D02C01A
:100F000060E070E0F9014091D5035091D603CF0124
:100F1000821B930B8417950740F44081469FC001C4
:100F2000479F900D11249193EECF83E38093D803D4
:100F30008091D70387FD08C061E00E94E00260E075
:100F40008091D7030E94930211E01093D2030E9474
:100F500091051092D6021092D5021092D4021092EE
:100F6000D3021092D2021093D1021092D00261E00B
:100F700082E10E94930261E083E10E9493028091EA
:100F8000B9008E7F8093B9008091B9008D7F8093E6
:100F9000B90088E48093B80085E48093BC0088E8B9
:100FA00090E09093CF028093CE0289E890E09093F6
:100FB000CD028093CC0280E18093BA0083E192E07D
:100FC0009093D8028093D7020E94510680EE92E05F
:100FD0000E94D700019609F441C080EE92E00E9481
:100FE000C3008C016C01990FEE08FF0819A2BE0125
:100FF0006F5D7F4FD701C6018F709927AA27BB2746
:1010000054E0F694E794D794C7945A95D1F7615079
:1010100071098A3014F4805D01C0895CDB018C9316
:10102000C114D104E104F10429F780EE92E00E949A
:10103000CC066DE372E080EE92E00E94CC06C8011F
:101040008F7D8135910519F41092D90207C0109354
:10105000030100930201B1E0B093D9028091020133
:1010600090910301209100013091010182179307B3
:10107000C1F01092DB021092DA029093010180938A
:1010800000018336910509F451C2D8F482359105E7
:10109000F1F18236910579F18C34910509F044C261
:1010A000E6C08336910509F441C258F482359105B2
:1010B00071F182369105F9F08C34910509F498C0EC
:1010C00033C28F36910509F42FC248F48736910553
:1010D00009F02AC26FEF70E080E090E015C082371F
:1010E000910571F08537910509F01EC200E010E00E
:1010F000212C312CE2C060E076EF80E090E004C06B
:1011000060E070E08FEF90E00E94AC060FC280912B
:10111000DA029091DB028130910509F442C08230FD
:10112000910561F0892B09F001C20E942602E1E0DD
:10113000F0E0F093DB02E093DA02F8C100E010E0A7
:1011400040E050E0BA01C8010E941D0540E050E0B7
:10115000BA0187E790E0801B910B0E941D050115E5
:10116000110589F040E05FEF6FEF70E0C801019773
:101170000E941D0540E05FEF6FEF70E0C8018A58E4
:101180009F4F0E941D050E94910564E670E080E07B
:1011900090E00E9441030F5F1F4F0A30110581F656
:1011A000C5C100E010E040E05FEF6FEF70E0C80104
:1011B0000E941D0540E05FEF6FEF70E087E790E071
:1011C000801B910B0E941D050E94910564E670E052
:1011D00080E090E00E9441030F5F1F4F0A3011052D
:1011E00011F722E030E03093DB022093DA029EC157
:1011F0008091DA029091DB028130910509F440C0C0
:101200008230910521F0892B09F090C130C009E0AE
:1012100010E040E050E0BA01C8010E941D0540E026
:1012200050E0BA0187E790E0801B910B0E941D05FA
:101230000115110581F04FEF50E0BA01C801019688
:101240000E941D054FEF50E0BA0188E790E0801B37
:10125000910B0E941D050E94910564E670E080E0FC
:1012600090E00E9441030150110998F65FC10E946D
:10127000260281E090E09093DB028093DA0256C16F
:1012800009E010E04FEF50E0BA01C8010E941D05CF
:101290004FEF50E0BA0187E790E0801B910B0E946E
:1012A0001D050E94910564E670E080E090E00E94D8
:1012B00041030150110930F794CF1BA21AA21FA2BB
:1012C0001EA21DA21CA2C801012E000CAA0BBB0B62
:1012D00088A799A7AAA7BBA76091D3037091D4034D
:1012E000ACA1BDA1A617B70708F07FC08EA19FA132
:1012F0000E94520DBAA16B0F6095653550F4C62E51
:10130000CC0CC60E8C2D8095D12CE12CF12CE82A2A
:101310001EC06A3A78F46555C62ECC0C6C0DC62EEC
:10132000D12CE12CF12CFE2CED2CDC2CCC24609566
:10133000C62A0DC06A5AC62ECC0CC60E8C2D8095BE
:10134000D12CE12CF12C7601DD24CC24D82A68A5FF
:1013500079A58AA59BA50E94880B20E030E048EC87
:1013600052E40E94A50C2B013C01B701FF0C880B35
:10137000990B0E94880BA30192010E94E70B0E9427
:10138000170D862E912CA12CB12C54019924882460
:101390006C2D70E080E090E00E94880BA301920128
:1013A0000E94E70B0E94170D862A6D2D70E080E0E9
:1013B00090E00E94880BA30192010E94E70B0E941B
:1013C000170DD501C401962BAC01BD018CA19DA1C7
:1013D0000E941D05ACA1BDA11196BDA3ACA3EEA1B9
:1013E000FFA1F395FFA3EEA377CF2114310491F46D
:1013F000B801012E000C880B990B0E94880B20E08D
:1014000030E046EC52E40E94810B87FF19C00F5F69
:101410001F4F16C0F2E02F16310491F42AA13BA110
:10142000B901330F880B990B0E94880B20E030E044
:101430004BE153E40E944D0D181614F401501109AC
:101440000E94910563E070E080E090E00E9441031B
:101450008AA19BA101969BA38AA38115914009F0C3
:101460002ECFBFEF2B1A3B0AE3E02E16310409F012
:1014700024CF64EF71E080E090E00E9441030AE035
:1014800011E0E12CF12C8091D3039091D403E81664
:10149000F90680F4D8014C9150E060E070E0742FC0
:1014A000662755274427C7010E941D05BFEFEB1A89
:1014B000FB0AE9CF0E9491050F5F1F4FEAE0F2E0BF
:1014C000E017F107F1F660ED77E080E090E00E9430
:1014D000410309E012E0E12CF12C8091D3039091BB
:1014E000D403E816F90680F4D8014C9150E060E08E
:1014F00070E0742F662755274427C7010E941D05F9
:10150000BFEFEB1AFB0AE9CF0E94910501501109C8
:10151000E9E0F1E0E017F107F1F664EF71E080E057
:1015200090E00E94410302C00E9426020E948C01AA
:101530004DCD8091D9039091DA03009711F00E946C
:10154000040E8091D70387FD03C060E00C94E00295
:101550000895CF93DF931092E3021092E20288EE97
:1015600093E0A0E0B0E08093E4029093E502A093C2
:10157000E602B093E7022EE032E03093E1022093DE
:10158000E00225EC30E03093ED022093EC0224ECF5
:1015900030E03093EF022093EE0220EC30E0309305
:1015A000F1022093F00221EC30E03093F30220931B
:1015B000F20222EC30E03093F5022093F40226ECA4
:1015C00030E03093F7022093F6021092F902109265
:1015D000FA021092FB021092FC0210928303109206
:1015E0008403109285031092860310928703109251
:1015F00088031092890310928A0310928B03109231
:101600008C0310928D0310928E0310928F03109210
:10161000900310929103109292031092C8031092BB
:10162000C7038093C9039093CA03A093CB03B093DD
:10163000CC0380E292E09093C6038093C50310929E
:10164000D2031092D8031092DF031092E00310929D
:10165000E1031092E20381E08093DE038093DB03D9
:101660001092DC0392E09093DD038093D103C0E0FD
:10167000D3E0D093D603C093D50380E093E00E94DB
:101680006C0D9093DA038093D903009769F0FC0105
:101690009E01119221503040E1F780E091E090935B
:1016A000D4038093D30308C01092D6031092D503BD
:1016B0001092D4031092D30386E08093D7038091D5
:1016C000D203882341F061E086E00E94E00260E0FE
:1016D00086E00E949302EAEAF0E0E491F0E0EE0F87
:1016E000FF1FE656FF4F859194919093E4038093FA
:1016F000E303ECE8F0E0E491E093E503DF91CF91C0
:1017000008950E94C30B08F481E00895E89409C08D
:1017100097FB3EF490958095709561957F4F8F4F24
:101720009F4F9923A9F0F92F96E9BB279395F6953A
:10173000879577956795B795F111F8CFFAF4BB0FB8
:1017400011F460FF1BC06F5F7F4F8F4F9F4F16C01C
:10175000882311F096E911C0772321F09EE8872FA6
:10176000762F05C0662371F096E8862F70E060E062
:101770002AF09A95660F771F881FDAF7880F9695DB
:10178000879597F90895990F0008550FAA0BE0E87F
:10179000FEEF16161706E807F907C0F01216130633
:1017A000E407F50798F0621B730B840B950B39F473
:1017B0000A2661F0232B242B252B21F408950A26D9
:1017C00009F4A140A6958FEF811D811D08950E9407
:1017D000FA0B0C946B0C0E945D0C38F00E94640CA8
:1017E00020F0952311F00C94540C0C945A0C1124F5
:1017F0000C949F0C0E947C0C70F3959FC1F3950F85
:1018000050E0551F629FF001729FBB27F00DB11D84
:10181000639FAA27F00DB11DAA1F649F6627B00D14
:10182000A11D661F829F2227B00DA11D621F739FFD
:10183000B00DA11D621F839FA00D611D221F749F0B
:101840003327A00D611D231F849F600D211D822F52
:10185000762F6A2F11249F5750409AF0F1F0882379
:101860004AF0EE0FFF1FBB1F661F771F881F9150A6
:101870005040A9F79E3F510580F00C94540C0C94F5
:101880009F0C5F3FE4F3983ED4F386957795679578
:10189000B795F795E7959F5FC1F7FE2B880F911DD0
:1018A0009695879597F9089597F99F6780E870E076
:1018B00060E008959FEF80EC089500240A941616C6
:1018C000170618060906089500240A94121613062E
:1018D000140605060895092E0394000C11F48823BC
:1018E00052F0BB0F40F4BF2B11F460FF04C06F5FD8
:1018F0007F4F8F4F9F4F089557FD9058440F551FAE
:1019000059F05F3F71F04795880F97FB991F61F081
:101910009F3F79F087950895121613061406551FF8
:10192000F2CF4695F1DF08C0161617061806991F64
:10193000F1CF86957105610508940895E894BB2759
:1019400066277727CB0197F908950E94B90C0C946C
:101950006B0C0E94640C58F00E945D0C40F029F45E
:101960005F3F29F00C94540C51110C949F0C0C9473
:101970005A0C0E947C0C68F39923B1F3552391F320
:10198000951B550BBB27AA2762177307840738F0EE
:101990009F5F5F4F220F331F441FAA1FA9F335D04B
:1019A0000E2E3AF0E0E832D091505040E695001CFF
:1019B000CAF72BD0FE2F29D0660F771F881FBB1FB9
:1019C000261737074807AB07B0E809F0BB0B802D97
:1019D000BF01FF2793585F4F3AF09E3F510578F0C3
:1019E0000C94540C0C949F0C5F3FE4F3983ED4F39A
:1019F000869577956795B795F7959F5FC9F7880F97
:101A0000911D9695879597F90895E1E0660F771FE8
:101A1000881FBB1F621773078407BA0720F0621B79
:101A2000730B840BBA0BEE1F88F7E09508950E94A4
:101A30001E0D6894B1110C949F0C08950E94840CA3
:101A400088F09F5798F0B92F9927B751B0F0E1F07F
:101A5000660F771F881F991F1AF0BA95C9F714C02F
:101A6000B13091F00E949E0CB1E008950C949E0C50
:101A7000672F782F8827B85F39F0B93FCCF3869568
:101A800077956795B395D9F73EF4909580957095C5
:101A900061957F4F8F4F9F4F08950E94C30B08F4AD
:101AA0008FEF0895AA1BBB1B51E107C0AA1FBB1FE4
:101AB000A617B70710F0A61BB70B881F991F5A95DA
:101AC000A9F780959095BC01CD010895EE0FFF1FF9
:101AD0000590F491E02D09940F931F93CF93DF931A
:101AE0008230910510F482E090E0E091E803F091FB
:101AF000E90320E030E0A0E0B0E0309719F1408148
:101B000051810281138148175907C8F0841795073E
:101B100069F4109731F012960C93129713961C9358
:101B200027C00093E8031093E90322C02115310573
:101B300019F04217530718F49A01BD01EF01DF01B4
:101B4000F801DBCF21153105F9F0281B390B2430C2
:101B5000310580F48A819B816115710521F0FB01BB
:101B60009383828304C09093E9038093E803FE018A
:101B7000329644C0FE01E20FF31F819391932250ED
:101B80003109398328833AC02091E6033091E70375
:101B9000232B41F420910601309107013093E70394
:101BA0002093E603209104013091050121153105B0
:101BB00041F42DB73EB74091080150910901241B13
:101BC000350BE091E603F091E703E217F307A0F489
:101BD0002E1B3F0B2817390778F0AC014E5F5F4F83
:101BE0002417350748F04E0F5F1F5093E7034093CB
:101BF000E6038193919302C0E0E0F0E0CF01DF9132
:101C0000CF911F910F910895CF93DF93009709F41F
:101C100081C0FC01329713821282A091E803B09137
:101C2000E903109781F420813181820F931F209165
:101C3000E6033091E7032817390751F5F093E703DE
:101C4000E093E60367C0ED0120E030E0CE17DF0748
:101C500040F44A815B819E0141155105F1F0EA0192
:101C6000F5CFD383C28340815181840F951FC8175C
:101C7000D90759F488819981840F951F0296918321
:101C800080838A819B81938382832115310529F486
:101C9000F093E903E093E8033DC0E901FB83EA83A5
:101CA00049915991C40FD51FEC17FD0761F480814C
:101CB0009181840F951F0296E9019983888382811F
:101CC00093819B838A83E0E0F0E012968D919C9152
:101CD0001397009719F0FD01DC01F7CF8D919C91CE
:101CE00011979D012E5F3F4F820F931F2091E603B6
:101CF0003091E7032817390769F4309729F41092D7
:101D0000E9031092E80302C013821282B093E70342
:101D1000A093E603DF91CF91089581E090E0F894DD
:101D20000C94920E10E0CDE5D0E004C0FE010E94BC
:0E1D3000660D2196CE35D107C9F7F894FFCF86
:101D3E006F006F000000EA0380000000000000004A
:101D4E000000000000000000000000000000000085
:101D5E00000000000000010101010101010101016B
:101D6E000101010202020202020202030303030343
:101D7E000303040404040405050505060606060708
:101D8E000707070808080909090A0A0A0B0B0B0CB2
:101D9E000C0D0D0D0E0E0F0F10101111121213133C
:101DAE0014141515161617181819191A1B1B1C1DA5
:101DBE001D1E1F20202122232324252627272829E4
:101DCE002A2B2C2D2E2F30313232333436373839F0
:101DDE003A3B3C3D3E3F40424344454648494A4BD0
:101DEE004D4E4F515253555657595A5C5D5F606276
:101DFE0063656668696B6D6E7072737577787A7CE1
:101E0E007E7F81838587898A8C8E90929496989A0C
:101E1E009C9EA0A2A4A7A9ABADAFB1B4B6B8BABDF3
:101E2E00BFC1C4C6C8CBCDD0D2D5D7DADCDFE1E492
:101E3E00E7E9ECEFF1F4F7F9FCFF000000001D01FB
:101E4E00F304B4006A01E500C300D70000000000EF
:101E5E00FE01F3011002B300EB01D701C801564D8C
:101E6E004450565F317C315F564D4450560D0A003A
:00000001FF
